S01700004763634170706C69636174696F6E312E737265635B
S11300000C9434000C9451000C9451000C94510045
S11300100C9451000C9451000C9451000C94510018
S11300200C9451000C9451000C9451000C94510008
S11300300C9451000C9451000C9451000C945100F8
S11300400C9451000C9451000C9451000C945100E8
S11300500C9451000C9451000C9451000C945100D8
S11300600C9451000C94510011241FBECFEFD8E022
S1130070DEBFCDBF11E0A0E0B1E0EAEFF4E002C0E2
S113008005900D92AA30B107D9F721E0AAE0B1E0BA
S113009001C01D92AA31B207E1F70E94B2010C948B
S11300A07B020C9400009BB19B7F9BB920E030E065
S11300B016C09BB19E7F9BB9882324F49BB19260A8
S11300C09BB903C09BB19D7F9BB99BB191609BB9C8
S11300D0880F95E09A95F1F700002F5F3F4F283085
S11300E031053CF38BB184608BB908950F931F9352
S11300F0CF93DF93EC0164E670E00E942A02CB0107
S11301000AE010E0B8010E942A0290930D01809346
S11301100C0185B1816085B9E0910C01F0910D016C
S1130120E050FF4F808190E0809590950E945300AD
S11301302FEF86E791E0215080409040E1F700C026
S1130140000085B18E7F85B9CE01B8010E942A02D4
S1130150EC01CB01B8010E942A0290931101809313
S1130160100185B1826085B9E0911001F09111010F
S1130170E050FF4F808190E0809590950E9453005D
S11301802FEF89EF90E0215080409040E1F700C0CC
S1130190000085B18D7F85B9D0930B01C0930A010E
S11301A085B1846085B9E0910A01F0910B01E050BA
S11301B0FF4F808190E0809590950E9453002FE737
S11301C088E391E0215080409040E1F700C00000B6
S11301D085B18B7F85B9DF91CF911F910F910895E0
S11301E060910E0170910F016F5F7F4F70930F014B
S11301F060930E0180E390E00E94580231C00196A2
S113020090931501809314010E947600609114016B
S11302107091150180E090E00E945802329B0CC05E
S1130220609114017091150180E090E00E945802E1
S113023085B1806285B90895339B0BC01092150176
S11302401092140160E070E080E090E00E94580297
S11302500895319B05C0109217011092160108955C
S11302608091140190911501873E23E092073CF29E
S1130270089560910E0170910F016F5F7F4F70932D
S11302800F0160930E0180E390E00E94580233C096
S1130290019790931501809314010E947600609158
S11302A014017091150180E090E00E945802329B85
S11302B00CC0609114017091150180E090E00E94DF
S11302C0580285B1806285B90895339B0BC01092A2
S11302D015011092140160E070E080E090E00E944B
S11302E058020895309B07C081E090E09093170175
S11302F080931601089580911401909115011816A8
S1130300190634F2089590931701809316018130F1
S1130310910539F480911401909115010E94F00027
S11303200895892BF1F480910E0190910F010097AB
S113033079F4209114013091150187EE93E0821B2A
S1130340930B90931501809314010E943901089531
S11303501816190634F480911401909115010E9425
S1130360390108958AB182608AB98AB184608AB9F0
S11303708AB181608AB984B1806284B987B18E7F81
S113038087B987B18D7F87B987B18B7F87B987B1EB
S1130390877F87B984B1816084B984B1826084B96C
S11303A084B1846084B980E090E00E94520290930A
S11303B019018093180180E390E00E945202909307
S11303C01301809312018091120190911301909373
S11303D00F0180930E01809118019091190190935F
S11303E0150180931401309B08C085B18F7D85B9B8
S11303F081E090E00E948301F6CF319B08C085B173
S11304008F7D85B980E090E00E948301ECCF339B1F
S11304101AC085B18F7D85B910921501109214010F
S113042010920F0110920E0160E070E080E090E005
S11304300E94580260910E0170910F0180E390E0D8
S11304400E945802D0CF80911401909115010E940E
S11304507600C9CF97FB072E16F4009407D077FDDA
S113046009D00E943E0207FC05D03EF49095819588
S11304709F4F0895709561957F4F0895AA1BBB1BEC
S113048051E107C0AA1FBB1FA617B70710F0A61B90
S1130490B70B881F991F5A95A9F780959095BC01B1
S11304A0CD010895A8E1B0E042E050E00C945F0271
S11304B00E946D02272F0C946E02DC01CB01FC011B
S11304C0F999FECF06C0F2BDE1BDF89A319600B4A9
S11304D00D9241505040B8F70895262FF999FECF58
S11304E01FBA92BD81BD20BD0FB6F894FA9AF99A4D
S10D04F00FBE01960895F894FFCFA3
S10D04FA3F065B4F666D7D077F6FC0
S9030306F3
